:400000000080002011000000BD1C0000BD1C000008B5044B1A6803F53F5302331A6001F06DFE00BFFA46004010B5054C237833B9044B13B10448AFF300800123237010BD59
:400040008881FF1F00000000605C0000084B10B51BB108490848AFF300800848036803B910BD074B002BFBD0BDE81040184700BF000000008C81FF1F605C0000C880FF1F0A
:400080000000000030B583B0002301932EE002F037FA024650B3194B1B7813B1012B08D024E02B2822D1154B00225A6001221A701CE0124B5B68132B03DD00220F4B1A70C3
:4000C00014E03B280DD10D4CE218002515725A1C626001AB04F10801E06900F0C3FE257004E00649C818027201334B6002F048FA0028CCD102F0D2F903B030BDA481FF1F5C
:4001000030B58DB000226946244B186A00F05CFD0128F7D1DDE902450022214B2046294603F072FA60B10021084601F0B3FF0AAB1C4A07CA83E80700184601F043FF12E0CE
:40014000002200232046294603F05EFA58B10021084601F09FFF0AAB134A07CA83E80700184601F02FFFDDE9062310490AA804F0A1F90021012001F08DFF0AA801F022FF36
:40018000DDE904230A490AA804F094F90721012001F080FF0AA801F015FFB3E7A481FF1F0000F03F685C0000745C0000805C0000885C000030B597B0002204A91D4B186A17
:4001C00000F002FD0128F7D1DDE9064500221A4B2046294603F018FA28B1184A0EAB07CA03C31A700BE0002200232046294603F00BFA20B1124A0EAB07CA03C31A80DDE9BE
:400200000823CDE90223DDE90A23CDE900230EAA0C49104604F04EF90EA802F03BFA0A4B1B68ADF838301B0C8DF83A300EA802F031FAC1E7A481FF1F0000F03F905C00009D
:400240009C5C0000A85C0000C85C000010B586B0044614231A4601A9204600F03FFE0028F7D0244901A804F049F918B9012002F0FBFA06E0204901A804F040F908B902F059
:40028000F3FA1E4901A804F039F920B944F2506002F03EF808E01A4901A804F02FF918B944F6382002F034F8164901A804F026F918B9012002F0E4FA06E0134901A804F0E7
:4002C0001DF908B902F0DCFA104901A804F016F918B9012002F0E0FA06E00D4901A804F00DF908B902F0D8FA4FF47A7001F0F0F8AFE700BFCC5C0000D05C0000D85C000055
:40030000E05C0000E85C0000EC5C0000F45C0000F85C000008B501F0AFFE012001F060FE0021084601F0B6FE094801F04BFE012001F056FE4FF47A7001F03CFD054802F0EB
:400340006DFA02F09DF802F04BF902F0B5F908BD005D00008500000000B583B001F0B8FEFFF7D8FF01F086FF00F054FA02F024F801220021642000F051FD364BD86138B943
:400380000021012001F086FE334801F01BFEFEE700222821082000F07BFB2E4B186238B90021012001F076FE2C4801F00BFEFEE70023019304220092C8222949294800F019
:4003C00033FF012807D00021012001F063FE264801F0F8FDFEE70023019304220092C8222249234800F020FF012807D00021012001F050FE1C4801F0E5FDFEE7002301936C
:4004000004220092C8221B491B4800F00DFF012807D00021012001F03DFE134801F0D2FDFEE70C4BDB690022019206220092C8221249134800F0F8FE012807D00021012017
:4004400001F028FE084801F0BDFDFEE700F01EFFFEE700BFA481FF1F105D0000245D0000305D0000B90400003C5D0000505D000001010000605D0000B50100006C5D0000D5
:400480004D02000038B50024002509E001F01EFF03F0BCF90146284603F004F905460134092CF3DD0249284603F0B8FA38BD00BF0000204100000000F0B58BB0002426E071
:4004C000204601F015FE0F2001F08AFC01F0E0FE002001F0E9FE54B901F0F8FE651C0AAB03EBC50502F0C2FD45E90A010DE0631EDBB2012B09D8FFF7C5FF651C0AAB03EB73
:40050000C50502F0C5FD45E90A010134E4B2022CD6D900223C4BDDE9020103F09DF828B100220023CDE90223002349E00022374BCDE90223F8E75C1C9D1C0AAB03EBC50521
:4005400055E90A230020324902F020FF00222F4B02F03EFC22A3D3E9002302F0EDFD02F0B7F906460F4645E90A671FA3D3E9002302F0E2FD02460B463046394602F0DCFD6F
:400580001BA3D3E9002302F025FC02460B463046394602F0D1FD18A3D3E9002302F01AFC02460B460020194902F0F0FE45E90A0113A3D3E9002302F00BFC45E90A01E3B20B
:4005C000012BB8D900230A2269461248006A00F077FA0128F6D14FF4FA6000F079FF6DE7000000000088C340190D1714EB88773EC2C3B46FEEAF2E3F90B8DE6EFD7F523F7B
:40060000666666666612714000405A400000F03F00007040A481FF1F82B0002301934FF0A00383F31188BFF36F8FBFF34F8F019B002BFCD002B0704706480068006880F356
:40064000088862B661B6BFF34F8FBFF36F8F00DF00BF000008ED00E04FF0807340F8043C21F0010140F8081C034B40F80C3C40F8202C4038704700BF190600000000000090
:40068000074B19680868B0E8F00F80F30988BFF36F8F4FF0000080F311884EF00D0E7047A80200204FF0A00383F31188BFF36F8FBFF34F8F024A136801331360704700BF72
:4006C000CC80FF1F034A1368013B13600BB983F311887047CC80FF1F0000000000000000EFF30980BFF36F8F0D4B1A6820E9F00F10602DE908404FF0A00080F3118800F07F
:4007000001FF4FF0000080F31188BDE8084019680868B0E8F00F80F30988BFF36F8F7047A802002008B54FF0A00383F31188BFF36F8FBFF34F8F00F0DFFD18B14FF0805230
:40074000024B1A60002383F3118808BD04ED00E0054B00221A6005490A600549054A116007221A60704700BF10E000E018E000E0F724010014E000E010B50B4B1A6842F4B4
:4007800060021A601A6842F060421A60FFF7E0FF0024064B1C60FFF74FFF00F0B3FEFFF73BFF204610BD00BF20ED00E0CC80FF1F38B5044610F0070F02D020F007040834F3
:4007C00000F090FD104B1B682BB90F4A02F10C0323F0070313600D4BD3F83C391C4447F6F772944208D8A34208D2074A15681D44064BC3F83C4902E0002500E0002500F000
:40080000FBFD284638BD00BFC881FF1F90F8FF1F704700BF034B044ADA62044A9A63044ADA6370470080FF1F81060000E10600002507000000F1080343604FF0FF3282608D
:40084000C360036100230360704700BF00230361704700BF43684B609A688A609A68516099600861036801330360704730B40D68B5F1FF3F01D1026907E000F1080200E0AC
:400880001A4653681C68A542FAD253684B6099608A605160086103680133036030BC704703694268816891608268416851605A68904201D182685A60002202611A68013A5E
:4008C0001A601868704700BF10B50446FFF7EAFEA26BE36B9A4201D1012400E00024FFF7F1FE204610BD00BF10B50446FFF7DAFEA36B0BB9012400E00024FFF7E3FE20467D
:4009000010BD00BF70B504461646856B026C3AB9036843BB806800F0BBFE0023A36029E06EB9406803F042F96268236C13446360A268934219D32368636000201AE0C0681B
:4009400003F034F9236C5B42E2681A44E26021688A4202D2A2681344E360022E07D145B1013D002006E0002004E0002002E0002000E000200135A56370BD00BF026C72B151
:4009800010B5C3681344C3608468A34201D30368C3600C46C168204603F008F910BD704738B50546FFF77EFE95F8454064B20AE06B6A53B105F1240000F0ECFD08B100F010
:4009C00059FE013C64B2002CF2DCFF2385F84530FFF778FEFFF766FE95F8444064B20AE02B6953B105F1100000F0D4FD08B100F041FE013C64B2002CF2DCFF2385F84430C1
:400A0000FFF760FE38BD00BF38B504460D46FFF749FE2168E26B236C03FB0210A0600020A0636160013A02FB0313E360FF2384F8443084F845307DB92369ABB104F11000D7
:400A400000F0A8FD80B14FF08052094B1A60BFF34F8FBFF36F8F07E004F11000FFF7EAFE04F12400FFF7E6FEFFF72CFE012038BD04ED00E010B5029B0C4609B91B6000E0FC
:400A80001A60D8631C6401211846FFF7BDFF10BDF0B583B005460E46174601FB00F04830FFF786FE044638B100903B4600F1480231462846FFF7DEFF204603B0F0BD00BF94
:400AC000F0B585B004460F4601921E460025FFF7E9FDA26BE36B9A4201D3022E21D1324639462046FFF70EFF636A6BB104F1240000F050FD88B14FF08052324B1A60BFF3C6
:400B00004F8FBFF36F8F08E038B14FF080522D4B1A60BFF34F8FBFF36F8FFFF7D3FD01204EE0019B1BB9FFF7CDFD002048E01DB902A800F069FD0125FFF7C4FD00F0D2FB16
:400B4000FFF7B0FD94F844305BB2B3F1FF3F02D1002384F8443094F845305BB2B3F1FF3F02D1002384F84530FFF7ACFD01A902A800F054FDF0B92046FFF7A6FEA0B101995E
:400B800004F1100000F0F6FC2046FFF709FF00F033FC00289BD14FF080520A4B1A60BFF34F8FBFF36F8F92E72046FFF7F9FE00F023FC8CE72046FFF7F3FE00F01DFC002053
:400BC00005B0F0BD04ED00E0F0B585B004460F4601920026FFF766FDA56BC5B139462046FFF7CCFE013DA563236963B104F1100000F0D0FC38B14FF08052304B1A60BFF3C4
:400C00004F8FBFF36F8FFFF75DFD012053E0019B1BB9FFF757FD00204DE01EB902A800F0F3FC0126FFF74EFD00F05CFBFFF73AFD94F844305BB2B3F1FF3F02D1002384F8DE
:400C4000443094F845305BB2B3F1FF3F02D1002384F84530FFF736FD01A902A800F0DEFCF0B92046FFF740FEA0B1019904F1240000F080FC2046FFF793FE00F0BDFB002872
:400C8000A8D14FF080520D4B1A60BFF34F8FBFF36F8F9FE72046FFF783FE00F0ADFB99E72046FFF77DFE00F0A7FB2046FFF71CFE00288FD0002005B0F0BD00BF04ED00E0A5
:400CC0008268436813440068181A824200D8801A704700BFF8B504460F4616461D462022002102F06EFFA761A660E5609DF818302377F8BD2DE9F04106468846174644680C
:400D000085682D1B954228BF154680692A46204402F04CFFAF4205D97A1B08EB0501B06902F044FFE319B268934200D39B1A73603846BDE8F08100BF30B583B004460D4672
:400D40000192ABB11A46037F13F0010F06D1019B9A4228BF1A46019201230CE0069B9A4208D304220DEB0201FFF7C4FF012302E0002300E000232BB1019A29462046FFF7B6
:400D8000B9FF00E0002003B030BD00BF2DE9F0419A4228BF1A461446DAB18846054606688768BF1B974228BF174681693A463144404602F0FBFEBC4205D9E21BA96908EB32
:400DC000070002F0F3FE2644AB689E4200D3F61A2E602046BDE8F0812DE9F04383B00546884616461C460A9F77B1D0F800903A4601A9FFF7CBFF019BE41BB34203D9C5F830
:400E00000090002600E01E462346324641462846FFF7BCFF03B0BDE8F08300BFF0B583B00D46012A01D1012700E0002705B90125461C2130FFF7BCFC044630B100972B46D8
:400E4000324600F12001FFF745FF204603B0F0BD8268036813444068181A0138824200D8801A70472DE9F04182B004460E4615469846037F13F0010F01D0171D00E0174615
:400E80002046FFF7E5FF009703462A4631462046FFF752FF0546E8B12046FFF711FFE368984217D3EFF311864FF0A00383F31188BFF36F8FBFF34F8F23694BB12069CDF89F
:400EC000008000231A46194600F0D4FC0023236186F31188284602B0BDE8F0812DE9F04383B00446884691461F46037F13F0010F01D0042600E00026F7B1FFF7D3FB2046A9
:400F0000FFF7DEFE0546864205D3002000F01EFD00F0B8FB2061FFF7D5FBAE4210D33B4600221146104600F0F7FB002323612046FFF7C6FE054603E02046FFF7C1FE05467F
:400F4000B54217D900962B464A4641462046FFF743FF054678B100F0C5F963693BB1606900231A46194600F029FC0023636100F043FA00E00025284603B0BDE8F08300BF23
:400F8000074B9B6A1B6823B94FF0FF32044BDA627047034B9A6AD268D2685268DA627047D001002010B50446006BFFF731FC2046FFF72EFC10BD00BF2DE9F04781460D464F
:400FC00017469A46089EDDF824800A9C9200A521206B02F0F6FD236B07F18042013A03EB820727F0070745B90EE0E95CE21882F83410EA5C22B1013300E000230B2BF4D9CC
:40100000002384F83F3002E0002384F83430042E00D90426E662266400256564201DFFF715FC04F11800FFF711FC2461C6F10506A6616462A56484F84C505246494638469A
:40104000FFF70AFB2060B8F1000F01D0C8F80040BDE8F08770B5002407E004EB8402930010481844FFF7E6FB0134042CF5D90E4C04F194063046FFF7DDFB04F1A80528461D
:40108000FFF7D8FB04F11400FFF7D4FB04F1BC00FFF7D0FB2046FFF7CDFBA662C4F8D05070BD00BF00020020D001002038B50546FFF7F8FA264BD3F8D4200132C3F8D420EE
:4010C000D3F8D8304BB9224BC3F8D850D3F8D430012B10D1FFF7BEFF0DE01D4BD3F8DC304BB91B4BD3F8D830DA6AEB6A9A4202D8174BC3F8D850164CD4F8E0300133C4F80F
:40110000E030EB6A012202FA03F1D4F8E4200A43C4F8E42004F1300003EB83039A00291D1044FFF797FBFFF7CDFAD4F8DC306BB1D4F8D830DA6AEB6A9A4207D24FF0805221
:40114000044B1A60BFF34F8FBFF36F8F38BD00BFD001002004ED00E038B517E0FFF7A2FA0D4CD4F8C830DD68281DFFF799FBD4F8D430013BC4F8D430D4F8E830013BC4F8A1
:40118000E830FFF79FFA2846FFF70CFF024BD3F8E830002BE2D138BDD001002008B5FFF7DBFFFCE770B504460E461E4BD3F8EC50D3F8D8000430FFF773FB60B9194BD3F8FF
:4011C000D820D16A012202FA01F1D3F8E42022EA0102C3F8E420B4F1FF3F07D136B11148D0F8D8100431FFF735FB70BD2C440D4BD3F8D8305C60A54208D90A4BD3F8D000CC
:40120000D3F8D8100431FFF731FB70BD054DA86AD5F8D8100431FFF729FBEB6A9C4200D2EC6270BDD00100202DE9F04385B006460F46154698469000FFF7BAFA60B1814634
:401240005020FFF7B5FA044610B1C0F8309004E04846FFF7DDFA00E000248CB10023039302940D9B01930C9B009343462A4639463046FFF7A1FE2046FFF718FF012001E099
:401280004FF0FF3005B0BDE8F08300BF00B583B0104B019300230093C8220F490F48FFF7C3FF012813D14FF0A00383F31188BFF36F8FBFF34F8F0A4B4FF0FF32DA620122F4
:4012C000C3F8DC200022C3F8EC20FFF755FA03B05DF804FBC4020020845D00009D110000D0010020034AD2F8F0300133C2F8F030704700BFD00100202DE9F0413D4BD3F856
:40130000F030002B68D13B4BD3F8EC700137C3F8EC7067B99A6AD3F8D0109962C3F8D020D3F8F8200132C3F8F820FFF729FE314BDB6A9F4205D24FF000083BE04FF001088F
:4013400001E04FF000082B4B9B6A1B6823B94FF0FF32284BDA622DE0264B9B6ADB68DC6863689F4202D2234AD36223E0261D3046FFF796FAA36A1BB104F11800FFF790FA78
:40138000E36A012202FA03F11A4DD5F8E4200A43C5F8E42005F1300003EB83039A0031461044FFF757FAE26AD5F8D830DB6A9A42C4D2C8E70F49D1F8D830DB6A03EB8303D8
:4013C0009A000A44136B012B01D94FF00108094BD3F8FC304BB90AE0064AD2F800310133C2F800314FF0000801E04FF001084046BDE8F081D001002070B5FFF753F9324BB5
:40140000D3F8F020013AC3F8F020D3F8F030002B53D12D4BD3F8D43043BB002450E02A4C236ADD6805F11800FFF73AFA2E1D3046FFF736FAEB6A012202FA03F1D4F8E42059
:401440000A43C4F8E42004F1300003EB83039A0031461044FFF7FEF9EA6AD4F8D830DB6A9A4204D30122C4F8FC2000E00025164B5B69002BD3D10DB1FFF782FD124BD3F805
:40148000004164B1FFF738FF18B101220E4BC3F8FC20013CF6D100220B4BC3F800210A4BD3F8FC305BB14FF08052084B1A60BFF34F8FBFF36F8F012402E0002400E0002490
:4014C000FFF700F9204670BDD001002004ED00E010B548B10446FFF705FF00212046FFF761FEFFF789FF00E0002038B94FF08052034B1A60BFF34F8FBFF36F8F10BD00BFB6
:4015000004ED00E01A4BD3F8F03023B10122184BC3F8FC20704710B4154A0023C2F8FC30D2F8E430B3FA83F3DBB2C3F11F039800C418A10011444C6B64684C6302F1300152
:401540001844820008320A44944206D1606803EB83018A0006490A445063054903EB83039A000A44536BDB68C1F8D83010BC7047D001002010B50C46054BD3F8D810183101
:40158000FFF774F901212046FFF70CFE10BD00BFD001002038B5C368DC6804F118052846FFF77EF9164BD3F8F030B3B9251D2846FFF776F9E36A012202FA03F11048D0F82D
:4015C000E4200A43C0F8E420303003EB83039A0029461044FFF73EF903E029460948FFF739F9E26A064BD3F8D830DB6A9A4204D90120034BC3F8FC0038BD002038BD00BF58
:40160000D0010020E4010020034BD3F8F8200260D3F8EC3043607047D0010020F8B504460D46FFF73FF8124BD3F8EC106268881A2B68B3F1FF3F14D027680D4ED6F8F8607F
:40164000B74201D091420ED2984206D21B1A2B602046FFF7D9FF002406E000232B60012402E0002400E00124FFF72CF82046F8BDD00100200122024BC3F8FC20704700BF7C
:40168000D0010020014BD3F8D8007047D0010020002838D038B50346426C013A4264C06A196C884231D092BB1C461D1D2846FFF7F7F880B9E26A02EB82018B0015490B44CA
:4016C0001B6B43B9012303FA02F2D1F8E43023EA0202C1F8E420236CE362C3F10502A261012404FA03F10B48D0F8E4200A43C0F8E420303003EB83039A0029461044FFF7B0
:40170000A9F8204638BD00207047002038BD002038BD00BFD0010020F8B507460D4614461E46FEF7BFFF234BD3F8D83093F84C30DBB2022B18D01F4BD3F8D820906C20EA21
:4017400007009064D3F8D830012283F84C205EB111463046FFF726FD4FF08052164B1A60BFF34F8FBFF36F8FFEF7ACFFFEF79AFF24B1104BD3F8D8309B6C23600D4BD3F892
:40178000D83093F84C30DBB2022B08D1094BD3F8D820936C23EA05059564012400E00024044BD3F8D830002283F84C20FEF78AFF2046F8BDD001002004ED00E0F8B50446BB
:4017C0000F4615461E46FEF76DFF0EB1A36C336094F84C30DBB2022284F84C206A1E032A15D8DFE802F002070C0FA26C1743A76401250FE0A26C0132A26401250AE0A76409
:40180000012507E0022B04D0A764012502E0012500E00025012B24D1271D3846FFF740F8E36A012202FA03F1104ED6F8E4200A43C6F8E42006F1300003EB83039A003946F8
:401840001044FFF707F8E26AD6F8D830DB6A9A4207D94FF08052064B1A60BFF34F8FBFF36F8FFEF72FFF2846F8BD00BFD001002004ED00E0F8B5EFF311854FF0A00484F39A
:401880001188BFF36F8FBFF34F8F0BB1846C1C6090F84C30DBB2022480F84C40013A032A15D8DFE802F002070C0F826C1143816401240FE0826C0132826401240AE0816404
:4018C000012407E0022B04D08164012402E0012400E00024012B30D106461A4BD3F8F030B3B9071D3846FEF7DBFFF36A012202FA03F11448D0F8E4200A43C0F8E42030301F
:4019000003EB83039A0039461044FEF7A3FF04E000F118010C48FEF79DFFF26A094BD3F8D830DB6A9A4208D9069B13B10123069A13600122034BC3F8FC2085F3118820467C
:40194000F8BD00BFD0010020E401002010B5044610B90A4BD3F8D840FEF7A4FE94F84C30DBB2022B04D1002384F84C30012400E00024FEF7A7FE204610BD00BFD0010020FE
:40198000FEE700BFF0B40022174611E050F82760F3B226F0FF0608E001EB420511F812406D78A5550132013BDBB2002BF4D10137142FEBD9F0BC704708B50A46002102F0DD
:4019C00000F908BDF8B5134B1B78DBB2124E3478E4B2124F3D78EDB203F00701104A11701B090132137044F00303337045F003033B7040239A321370023213702022094B35
:401A00001A700A2000F0ECF93D7034704422064B1A70F8BDCF010049F8460040F94600406E5800402B5B00407658004008B502F0BDF808BD38B54A22304B1A801823304A9A
:401A40001370A221023211800232137004222D492D48FFF7EBFF02222C4B1A7008224FF040231A70032203F500731A70284B1B78DBB2284A137040F24B22274B1A8042F2B7
:401A80005122023B1A80002419250CE0234B1B7803F0010343EA440404F003044FF4F07000F006FF013D0DB1032CEFD115B90320FFF766FF1A4B4FF480721A8007221A7070
:401AC000002218490A704820023108701A700222033B1A7004220A331A70134A137843F003031370013A137843F001031370013A137843F08003137038BD00BF804000409C
:401B000082400040A8040048004100400043004008010049A146004022420040254200400440004006400040A2430040022814D810B44000C0B2094B53F820101A18147E99
:401B40000A7822430A700130C0B253F820201844017E13780B43137010BC70478C5D0000022816D810B44000C0B20A4B53F820101A18147E0A7822EA04020A700130C0B260
:401B800053F820201844017E137823EA0103137010BC70478C5D000010B572B66122354B1A70FFF747FF344A137843F00403137000240BE0314863001A19510001440A46B4
:401BC000898C106AFFF7F8FE0134E4B2072CF1D900240BE02949A3001819420088188022416D006DFFF722FF0134E4B2002CF1D023494FF09040FFF7C5FE224A137843F081
:401C0000020313701032137843F0020313701E4C237843F040032370A2F58632513A137843F0100313700A2218491948FFF7FEFE082218491848FFF7F9FE082217491848B6
:401C4000FFF7F4FE082217491748FFF7EFFE082216491748FFF7EAFE164A137843F008031370FFF7AFFE0E2221461348FFF7DEFE10BD00BF00480040E84600408C5D00006C
:401C80005400004803500140A04300407C040048C051004088040048F251004090040048125100409804004822510040A00400483251004022430040B043004008B501F016
:401CC00049FF03680C2B00D1FEE7FEE708B5094B1A681044084BC31AB3F5007F02DC054B186005E001F036FF0C2303604FF0FF32104608BDD080FF1F2003002008B5104E87
:401D0000104D16E029686B68AC68002204E051F8040B43F8040B0432A242F8D1E868002203E0002143F8041B04328242F9D11035013E002EE6D101F013FFFEF70DFBFEE76B
:401D400001000000705F000008B5104A104B1A60104A136843F40073136000230AE0032B03D80D4A52F8231000E00C490C4A42F8231001332F2BF2D90A4B1A780A4B1A70B4
:401D8000074A0A4B1A60FFF707FF08BD0004FA050CED00E014ED00E000000000BD1C00000080FF1FBC760040C080FF1F08ED00E001BE704710B5044605E0084B186800F03C
:401DC00077FDA4F50044B4F5004FF6D8034B586800FB04F000F06CFD10BD00BFD480FF1F08B5034B1B7A00FB03F000F061FD08BDD480FF1F70B504460E46074B1D681F2884
:401E000002D90020FFF7D4FF04F01F04103455F8240045F8246070BD08ED00E038B504460D46072902D90020FFF7C2FF1F2C02D90020FFF7BDFF04F01F0000F1604000F552
:401E400064406D01EDB2057038BD00BF10B50B4C237803F09F032370237803F0F00323702378184340F0100020700120FFF7B8FF237803F0EF03237010BD00BF20510040B1
:401E800038B505460E4C237843F020032370237803F0BF0323700020FFF7A2FF237803F0F003237023781D4345F0100525700120FFF796FF237803F0EF03237038BD00BF11
:401EC0002051004070B5364B1A7802F08002D2B21A7034490A7802F0F00242F00F020A7001310A7802F0F0020A7001310A7802F0F0020A701A7802F0DF021A701A7842F000
:401F000040021A704FF4CA760020FFF769FF244D2B7843F010032B700120FFF761FF224B1C78E4B22B7803F0EF032B700020FFF757FF04F00804E4B22B7843F010032B7028
:401F40000120FFF74DFF2B7803F0EF032B7014B90A20FFF745FF013E0CB1002ED4D1104A137803F0BF031370137803F08003DBB213700232137803F0F003137001321378C7
:401F800003F0F00343F00F0313700132137803F0F00343F00F0313700A20FFF721FF70BD20510040225100402151004010B50446FFF788FF2009FFF763FF04F00F00FFF77E
:401FC0005FFF10BD38B505460078012404E0FFF7EDFF285D0134E4B20028F8D138BD00BF10B50446FFF76EFF2009FFF72FFF04F00F00FFF72BFF10BD08B52820FFF7DAFEA4
:402000000320FFF723FF0520FFF7D4FE0320FFF71DFF0F20FFF7CEFE0320FFF717FF0120FFF7C8FE0220FFF711FF0520FFF7C2FE0620FFF7D5FF0E20FFF7D2FF2C20FFF71C
:40204000CFFF0820FFF7CCFF0120FFF7C9FF0C20FFF7C6FF0320FFF7C3FF0520FFF7AAFE08BD00BF08B50C20FFF7BAFF0122014B1A7008BDD402002008B5054B5B7823B9B9
:40208000FFF7BAFF0122024B5A70FFF7EBFF08BDD402002008B5032819D8DFE800F002070D1381F08000FFF79BFF08BDA1F14000C0B2FFF795FF08BDA1F16C00C0B2FFF7A4
:4020C0008FFF08BDA1F12C00C0B2FFF789FF08BD10B5002404E02046FFF742FD0134E4B2022CF8D9FF22014B1A7010BDE480FF1F10B50446FFF7ECFF2046FFF717FD014BF6
:402100001C7010BDE480FF1F08B50A280FD00C2802D0082806D102E04FF4805209E04FF4807206E00020FFF743FE002201E04FF480620021094B198042F2107303FB02F3B7
:4021400003F6C413064A82FB0302DB17C3EBE223044A1360044B198008BD00BFF4020020AD8BDB68EC020020F202002038B500F0A7FB04461E4A137843F00203137010327F
:40218000137843F0020313701A3A137843F0010313701032137843F00103137002F5AA521A32137843F0030313701822114B1A70013B1A7842F040021A701A7802F0FC02C5
:4021C0001A70CE22053B1A700225A3F59753123B1D70094A137843F0080313700A20FFF7FFFD064B1D60204600F06EFB38BD00BFAB4300400E5900402F5B004080E200E03B
:4022000010B504460A280DD00C2802D0082804D101E0C22207E0422205E00020FFF7C8FDC22200E08222034B1A702046FFF76CFF10BD00BF0A59004008B5102000F0FCFA9C
:4022400007210120FFF7EAFD07490120FFF7D2FD064A137843F0060313700820FFF7D0FF0022034B1A8008BDE522000009590040F002002008B5054B1B7823B9FFF7DCFFA4
:402280000122024B1A70FFF771FF08BDD6020020044B1A7802F0FB021A701A7842F001021A7070470859004010B5074B1B7813F0010401D10028F8D024B10120FFF790FD11
:4022C000014B1B78204610BD09590040034B188880B2034B1B88C01A00B27047A25B0040F2020020704700BF024A137843F080031370704778640040014B1880704700BFD2
:40230000106A0040014B1880704700BF906A0040014B1880704700BF506A0040014B1870704700BF88640040014B1878704700BF68640040014B188880B27047B06A0040F8
:4023400008B501E0FFF7F6FFFFF7EEFF10F0100FF8D108BD08B5164A137803F0C00343F02403137002F59072137843F0010313700132137843F00103137044F61F60FFF7A4
:40238000BBFF44F61F60FFF7BDFF7F20FFF7C0FF0020FFF7C3FF00F093FA064A137843F01003137000F090FAFFF7CAFF08BD00BF786400409864004008B5054B1B7823B91A
:4023C000FFF7C8FF0122024B1A70FFF78DFF08BDD702002008B511490220FFF70BFD05210220FFF71BFD00220D4B1A7072220D4B1A70202201331A700B490320FFF7FAFC7C
:4024000005210320FFF70AFD0622084B1A70472210331A70022251331A7008BDF9260000D802002089650040912700002864004010B500F045FA04460D4A137843F02003E3
:4024400013700132137843F010031370094A0423136009490B7843F010030B70082307490B60136000F0F2F9204600F02DFA10BD9965004000E100E09964004080E200E0D3
:4024800008B5054B5B7823B9FFF7A4FF0122024B5A70FFF7CDFF08BDD80200200422134B1A60134A9378DBB2D178C9B2127912F0FF0F01D18B4211D00E4AD05CC0B2013310
:4024C000DBB20F2B00D90023094A9370137913F0FF0F06D00022064B1A7102E0064B1878C0B20422054B1A60704700BF80E100E0D8020020F80200204A65004000E100E0B2
:402500000422194B1A60194A9378DBB2D178C9B2127912F0FF0F01D18B4211D0144AD05CC0B20133DBB20F2B00D900230F4A9370137913F0FF0F13D000220C4B1A710FE0FB
:402540000C4B1B78DBB213F0200F06D00A4A1078C0B213F01E0F02D102E0002000E000200422064B1A60704780E100E0D8020020F80200206A6500404A65004000E100E0CD
:402580000422144B1A60144B9A78D2B2DB78DBB29A4206D1104B1B7913F0FF0F15D0102014E00D4B9A78D2B2DB78DBB29A4205D2094AD3789078181AC0B207E0064AD3783E
:4025C0009078181A1030C0B200E000200422034B1A60704780E100E0D802002000E100E008B500F06DF90B4B1A7842F001021A701A7802F0FE021A7000F066F90421064BC1
:402600001960064B00229A70DA701A715A71044B196008BD9A65004080E100E0D802002000E100E0164BD9799B79DBB2994205D25A1E914214BF0022012204E0CA1A0F2AD2
:4026400014BF00220122002AECD1994207D10D4B1B7813F0040F02D10B4B187070470F2900D90021094B58540131054BD971054B1B7813F0020F02D00822054B1A607047CD
:40268000D802002069640040496400400803002000E200E038B5074B5B782BB938BDFFF7C1FF0134A4B201E005460024285D0028F5D138BDD802002008B500F001F90A4B5F
:4026C0001A7842F001021A701A7802F0FE021A7000F0FAF80823054A1360054A00219171D171044A136008BD9964004080E100E0D802002000E100E01D4B1B78DBB213F0AE
:402700001E0F05D01B4803F01E0201780A43027003F0200303F0FF0233B3174B1978C9B2164B1B78DBB21648C154164B1B7813F0FF0F02D00121144B197010490B780133A6
:40274000DBB20B700B78DBB20F2B02D900210B4B19700A4B1978C9B20C4B1B78DBB2994202D10121074B1970002AC5D1704700BF6A650040D80200204A650040DB0200207E
:40278000F8020020DC020020DD020020DA02002013E0104B1B78DBB20F2B02D900220D4B1A700C4A1378DBB20B49CB5CDBB20B490B7013780133DBB21370064B1B78DBB2FA
:4027C000074A1278934204D0064B1B7813F0040FDFD07047DE0200200803002049640040DF02002069640040014B1B681864704708ED00E04001C0B2014B1870704700BFFB
:4028000000E400E00122014B1A60704700E100E00122014B1A60704780E100E010B50446FFF7F6FF2046FFF7DFFF0720FFF7E2FFFFF7E8FF10BD00BF034B1A7800F0F8002F
:4028400010431870704700BF02410040054A137843F0020313701032137843F002031370704700BFA2430040044A137803F0EF03000100F0100018431070704710510040DA
:40288000044A137803F0BF03800100F0400018431070704710510040044A137803F0EF03000100F01000184310707047F05100400230800803D000BF01380046FCD1704785
:4028C000EFF3108072B6704780F31088704700BF2DE9F0418AB004460D4600F079F8374B064693F900800F46B8F1FF3F0DD022462B462046294600F0B9FE30B90022002311
:402900002046294600F0A8FE20B1304639460AB0BDE8F0812A4B0890CDE90245CDE904450193B8F1000F19D1264F4FF060462046294600220023CDE9066700F065FE002845
:4029400034D002230093684600F036FAA8B1089BC3B9DDE906010AB0BDE8F0811A4F00262046294600220023CDE9066700F04CFE68B1022398450093E5D101F0EBF8222335
:402980000360E4E701F0E6F8089B0360E1E70123B8F1020F00930BD101F0DCF8212303600A4800F00BFACDE90601D0E701230093684600F001FA0028F2D1EDE7E580FF1F46
:4029C000E85D0000FFFFEFC70000F0FF985C00002DE9F04FB1F5801F85B006460F460B465ADA024621F00044224300F0F7800029C0F279810022D64B00F09EFB0B460F4656
:402A0000D44906468B426FF0350249DCC3F3130505F5152404F6647404F4801E8EF07F5181F440111B15A3F2FF3341EA05079C1830460022C84B394604EB1E5400F0C8F90A
:402A4000AB1CC3F31303022B82468B464FF000022FDC002300F0D8FD002800F0C880002C00F04A81204600F001FBA5A3D3E9002306460F4600F060FBA3A3D3E900230446AE
:402A80000D463046394600F057FB02460B462046294600F09FF909E0AE4900228B42B5DD32463B463046394600F094F905B0BDE8F08F4FF0804300F08DF902460B4650464A
:402AC000594600F063FC064620460F4600F0CEFA3246CDE900013B4630463946CDE9026700F02AFB02460B468046894600F024FB87A3D3E9002306460F4600F01DFB86A338
:402B0000D3E9002300F066F932463B4600F014FB83A3D3E9002300F05DF932463B4600F00BFB81A3D3E9002300F054F942464B4600F002FB7EA3D3E90023804689463046E4
:402B4000394600F0F9FA7CA3D3E9002300F042F932463B4600F0F0FA79A3D3E9002300F039F932463B4600F0E7FA0B4602464946404600F02FF9A5F5C223C5F5D725A3F280
:402B80007A4351351D43002D8046894656DD0022724B5046594600F0CFFA52465B4600F0CBFA06460F46002C68D132463B464046494600F00FF9DDE9022300F0BDFA0246DC
:402BC0000B463046394600F003F902460B465046594600F0FDF805B0BDE8F08F0022002300205F4900F0D2FB05B0BDE8F08F56A3D3E900235046594600F09EFA02460B4646
:402C00000020564900F0E4F8524606460F465B465046594600F090FA02460B463046394600F08AFA06460F46002C40F09B8002460B465046594600F0CBF837E7002C00F0AB
:402C4000A5802FA3D3E90023DDE9000100F074FA42464B4604460D465046594600F0B8F8DDE9022300F068FA27A3D3E9002306460F46DDE9000100F05FFA21E020A3D3E9B7
:402C80000023DDE9000100F057FA32463B4604460D464046494600F09DF8DDE9022300F04BFA19A3D3E9002380468946DDE9000100F042FA02460B464046494600F08AF856
:402CC00002460B463046394600F082F852465B4600F07EF802460B462046294600F078F805B0BDE8F08F02460B4600F071F80022002300F04BFBD9E600200021D6E600BFAE
:402D00000000E0FE422EE63F763C7935EF39EA3D44523EDF12F1C23FDE03CB966446C73F599322942449D23F935555555555E53F9FC678D0099AC33FAF788E1DC571CC3FE3
:402D400004FA97999999D93F555555555555D53F00005043FFFFEF7F0000F03F0000E03F000050C3204600F081F90FA3D3E900238046894600F0E0F90DA3D3E900230446D1
:402D80000D464046494600F0D7F999E702460B465046594600F01CF8DDE9022300F0CCF913E700BFAFF300800000E0FE422EE63F763C7935EF39EA3D0020704700200149BB
:402DC000704700BF0000F87F81F0004102E000BF83F0004330B54FEA41044FEA430594EA050F08BF90EA020F1FBF54EA000C55EA020C7FEA645C7FEA655C00F0E2804FEAC2
:402E00005454D4EB5555B8BF6D420CDD2C4480EA020281EA030382EA000083EA010180EA020281EA0303362D88BF30BD11F0004F4FEA01314FF4801C4CEA113102D040426C
:402E400061EB410113F0004F4FEA03334CEA133302D0524263EB430394EA050F00F0A780A4F10104D5F1200E0DDB02FA0EFC22FA05F2801841F1000103FA0EF2801843FAB8
:402E800005F359410EE0A5F120050EF1200E012A03FA0EFC28BF4CF0020C43FA05F3C01851EBE37101F0004507D54FF0000EDCF1000C7EEB00006EEB0101B1F5801F1BD37B
:402EC000B1F5001F0CD349085FEA30004FEA3C0C04F101044FEA445212F5800F80F09A80BCF1004F08BF5FEA500C50F1000041EB045141EA050130BD5FEA4C0C404141EB64
:402F0000010111F4801FA4F10104E9D191F0000F04BF01460020B1FA81F308BF2033A3F10B03B3F120020CDA0C3208DD02F1140CC2F10C0201FA0CF021FA02F10CE002F17B
:402F40001402D8BFC2F1200C01FA02F120FA0CFCDCBF41EA0C019040E41AA2BF01EB0451294330BD6FEA04041F3C1CDA0C340EDC04F11404C4F1200220FA04F001FA02F35B
:402F800040EA030021FA04F345EA030130BDC4F10C04C4F1200220FA02F001FA04F340EA0300294630BD21FA04F0294630BD94F0000F83F4801306BF81F480110134013D49
:402FC0004EE77FEA645C18BF7FEA655C29D094EA050F08BF90EA020F05D054EA000C04BF1946104630BD91EA030F1EBF0021002030BD5FEA545C05D14000494128BF41F0C8
:40300000004130BD14F580043CBF01F5801130BD01F0004545F0FE4141F470014FF0000030BD7FEA645C1ABF194610467FEA655C1CBF0B46024650EA013406BF52EA0335ED
:4030400091EA030F41F4002130BD00BF90F0000F04BF0021704730B54FF4806404F132044FF000054FF0000150E700BF90F0000F04BF0021704730B54FF4806404F1320485
:4030800010F0004548BF40424FF000013EE700BF42004FEAE2014FEA31014FEA02701FBF12F07F4393F07F4F81F06051704792F0000F14BF93F07F4F704730B54FF4607476
:4030C00001F0004521F0004120E700BF50EA010208BF704730B54FF000050AE050EA010208BF704730B511F0004502D5404261EB41014FF4806404F132045FEA915C3FF42C
:40310000DCAE4FF003025FEADC0C18BF03325FEADC0C18BF033202EBDC02C2F1200300FA03FC20FA02F001FA03FE40EA0E0021FA02F11444C1E600BF70B54FF0FF0C4CF4F2
:40314000E06C1CEA11541DBF1CEA135594EA0C0F95EA0C0F00F0DEF82C4481EA030621EA4C5123EA4C5350EA013518BF52EA033541F4801143F4801338D0A0FB02CE4FF020
:403180000005E1FB02E506F00042E0FB03E54FF00006E1FB03569CF0000F18BF4EF0010EA4F1FF04B6F5007F64F5407404D25FEA4E0E6D4146EB060642EAC62141EA5551FA
:4031C0004FEAC52040EA5E504FEACE2EB4F1FD0C88BFBCF5E06F1ED8BEF1004F08BF5FEA500E50F1000041EB045170BD06F0004646EA010140EA020081EA0301B4EB5C0456
:40320000C2BFD4EB0C0541EA045170BD41F480114FF0000E013C00F3AB8014F1360FDEBF002001F0004170BDC4F10004203C35DA0C341BDC04F11404C4F1200500FA05F388
:4032400020FA04F001FA05F240EA020001F0004221F0004110EBD37021FA04F642EB06015EEA430E08BF20EAD37070BDC4F10C04C4F1200500FA04F320FA05F001FA04F2AC
:4032800040EA020001F0004110EBD37041F100015EEA430E08BF20EAD37070BDC4F1200500FA05F24EEA020E20FA04F301FA05F243EA020321FA04F001F0004121FA04F2CB
:4032C00020EA020000EBD3705EEA430E08BF20EAD37070BD94F0000F0FD101F00046400041EB010111F4801F08BF013CF7D041EA060195F0000F18BF704703F00046520054
:4033000043EB030313F4801F08BF013DF7D043EA0603704794EA0C0F0CEA135518BF95EA0C0F0CD050EA410618BF52EA4306D1D181EA030101F000414FF0000070BD50EAF0
:40334000410606BF1046194652EA430619D094EA0C0F02D150EA013613D195EA0C0F05D152EA03361CBF104619460AD181EA030101F0004141F0FE4141F470014FF0000017
:4033800070BD41F0FE4141F4780170BD70B54FF0FF0C4CF4E06C1CEA11541DBF1CEA135594EA0C0F95EA0C0F00F0A7F8A4EB050481EA030E52EA03354FEA013100F0888038
:4033C0004FEA03334FF0805545EA131343EA12634FEA022245EA111545EA10654FEA00260EF000419D4208BF964244F1FD0404F5407402D25B084FEA3202B61A65EB030532
:403400005B084FEA32024FF480104FF4002CB6EB020E75EB030E22BFB61A754640EA0C005B084FEA3202B6EB020E75EB030E22BFB61A754640EA5C005B084FEA3202B6EB61
:40344000020E75EB030E22BFB61A754640EA9C005B084FEA3202B6EB020E75EB030E22BFB61A754640EADC0055EA060E18D04FEA051545EA16754FEA06164FEAC30343EA6C
:4034800052734FEAC2025FEA1C1CC0D111F4801F0BD141EA00014FF000004FF0004CB6E711F4801F04BF01430020B4F1FD0C88BFBCF5E06F3FF6AFAEB5EB030C04BFB6EBC0
:4034C000020C5FEA500C50F1000041EB045170BD0EF0004E4EEA113114EB5C04C2BFD4EB0C0541EA045170BD41F480114FF0000E013C90E645EA060E8DE60CEA135594EAAF
:403500000C0F08BF95EA0C0F3FF43BAF94EA0C0F0AD150EA01347FF434AF95EA0C0F7FF425AF104619462CE795EA0C0F06D152EA03353FF4FDAE1046194622E750EA41060E
:4035400018BF52EA43067FF4C5AE50EA41047FF40DAF52EA43057FF4EBAE12E74FF0FF3C06E000BF4FF0010C02E000BF4FF0010C4DF804CD4FEA410C7FEA6C5C4FEA430C25
:4035800018BF7FEA6C5C1BD001B050EA410C0CBF52EA430C91EA030F02BF90EA020F0020704710F1000F91EA030F58BF994208BF90422CBFD8176FEAE37040F00100704744
:4035C0004FEA410C7FEA6C5C02D150EA013C07D14FEA430C7FEA6C5CD6D152EA033CD3D05DF8040B704700BF8446104662468C461946634600E000BF01B5FFF7B7FF0028CF
:4036000048BF10F1000F01BD4DF808EDFFF7F4FF0CBF012000205DF808FB00BF4DF808EDFFF7EAFF34BF012000205DF808FB00BF4DF808EDFFF7E0FF94BF012000205DF813
:4036400008FB00BF4DF808EDFFF7CEFF94BF012000205DF808FB00BF4DF808EDFFF7C4FF34BF012000205DF808FB00BF4FEA410C7FEA6C5C02D150EA013C0AD14FEA430C3E
:403680007FEA6C5C02D152EA033C02D14FF0000070474FF00100704780F0004002E000BF81F0004142001FBF5FEA410392EA030F7FEA226C7FEA236C6AD04FEA1262D2EBFA
:4036C0001363C1BFD218414048404140B8BF5B42192B88BF704710F0004F40F4000020F07F4018BF404211F0004F41F4000121F07F4118BF494292EA030F3FD0A2F1010273
:4037000041FA03FC10EB0C00C3F1200301FA03F100F0004302D5494260EB4000B0F5000F13D3B0F1807F06D340084FEA310102F10102FE2A51D2B1F1004F40EBC25008BF66
:4037400020F0010040EA03007047490040EB000010F4000FA2F10102EDD1B0FA80FCACF1080CB2EB0C0200FA0CF0AABF00EBC25052421843BCBFD0401843704792F0000F7E
:4037800081F4000106BF80F400000132013BB5E74FEA41037FEA226C18BF7FEA236C21D092EA030F04D092F0000F08BF0846704790EA010F1CBF0020704712F07F4F04D17B
:4037C000400028BF40F00040704712F100723CBF00F50000704700F0004343F0FE4040F4000070477FEA226216BF08467FEA23630146420206BF5FEA412390EA010F40F416
:40380000800070474FF0000304E000BF10F0004348BF40425FEA000C08BF704743F0964301464FF000001CE050EA010208BF70474FF000030AE000BF50EA010208BF7047DE
:4038400011F0004302D5404261EB41015FEA010C02BF84460146002043F0B64308BFA3F18053A3F50003BCFA8CF2083AA3EBC25310DB01FA02FC634400FA02FCC2F120026F
:40388000BCF1004F20FA02F243EB020008BF20F00100704702F1200201FA02FCC2F1200250EA4C0021FA02F243EB020008BF20EADC7070474FF0FF0C1CEAD0521EBF1CEA6E
:4038C000D15392EA0C0F93EA0C0F6FD01A4480EA010C400218BF5FEA41211ED04FF0006343EA501043EA5111A0FB01310CF00040B1F5000F3EBF490041EAD3715B0040EAF9
:40390000010062F17F02FD2A1DD8B3F1004F40EBC25008BF20F00100704790F0000F0CF0004C08BF49024CEA502040EA51207F3AC2BFD2F1FF0340EAC250704740F4000087
:403940004FF00003013A5DDC12F1190FDCBF00F000407047C2F10002410021FA02F1C2F1200200FA02FC5FEA310040F1000053EA4C0308BF20EADC70704792F0000F00F087
:40398000004C02BF400010F4000F013AF9D040EA0C0093F0000F01F0004C02BF490011F4000F013BF9D041EA0C018FE70CEAD15392EA0C0F18BF93EA0C0F0AD030F0004C67
:4039C00018BF31F0004CD8D180EA010000F00040704790F0000F17BF90F0004F084691F0000F91F0004F14D092EA0C0F01D142020FD193EA0C0F03D14B0218BF084608D17E
:403A000080EA010000F0004040F0FE4040F40000704740F0FE4040F4400070474FF0FF0C1CEAD0521EBF1CEAD15392EA0C0F93EA0C0F69D0A2EB030280EA010C49024FEA8B
:403A4000402037D04FF0805343EA111143EA10130CF000408B4238BF5B0042F17D024FF4000C8B4224BF5B1A40EA0C00B3EB510F24BFA3EB510340EA5C00B3EB910F24BF0D
:403A8000A3EB910340EA9C00B3EBD10F24BFA3EBD10340EADC001B0118BF5FEA1C1CE0D1FD2A3FF650AF8B4240EBC25008BF20F0010070470CF0004C4CEA50207F32C2BF1C
:403AC000D2F1FF0340EAC250704740F400004FF00003013A37E792F0000F00F0004C02BF400010F4000F013AF9D040EA0C0093F0000F01F0004C02BF490011F4000F013BFB
:403B0000F9D041EA0C0195E70CEAD15392EA0C0F08D142027FF47DAF93EA0C0F7FF470AF084676E793EA0C0F04D14B023FF44CAF08466EE730F0004C18BF31F0004CCAD1F0
:403B400030F000427FF45CAF31F000437FF43CAF5FE700BF014B1868704700BF4881FF1F0E4B70B51E460E4C0025E41AA410A54204D056F8253098470135F8E702F0E6F93F
:403B8000084B094C1E46E41AA4100025A54204D056F8253098470135F8E770BD585F0000585F0000585F0000605F000010B5431E0A44914204D011F8014B03F8014FF8E725
:403BC00010BD03460244934202D003F8011BFAE770472DE9F04788B0149F002B1E461299B8BF03F1004327F02007B6BF1E4600232D23462F1446109DDDF84CA00B7003D0DE
:403C0000452F03D1013501E0032300E0022307AA049206AA03928DE828042246334600F00BFD472F804602D1119BDB0728D5462F08EB050911D198F80030302B0AD10022EA
:403C4000002320463146FFF7DFFC18B9C5F10105CAF80050DAF8003099440022002320463146FFF7D1FC08B9302202E0CDF81C9006E0079B994503D9591C07911A70F8E7F2
:403C80004046079B159AC8EB0303136008B0BDE8F087034673B50029B8BF494203F8022BB4BF2D222B22092942701ADD0DF1070216460A2591FBF5F405FB1411092C01F12C
:403CC000300102F8011D2146F4DC3031541E02F8011CB4421A460AD214F8012B03F8012BF7E71A463024214402F8024B5970101A02B070BD2DE9F04F91B00C46DDF8688014
:403D000016461F46054601F02FFA03681846099300F0FEFB00230E93D8F800300A90073323F0070303F1080294F81890D4F800B0C8F80020D3E90023C4E91223D4F84CA053
:403D4000D4F848802AF000430B934FF0FF32A74B40460B99FFF78AFCA0B94FF0FF32A34B40460B99FFF764FC60B90022002340465146FFF753FC10B12D2384F843309C4BCE
:403D80009C4A0AE04246534640465146FFF76EFC002800F09281984B984AB9F1470F8CBF90469846032323612BF0040323604FF0000A3DE0B9F1670F00F08A81B9F1470FD6
:403DC00000F0868123600193636800210DF13302059002920093424653460691CDF81090CDF80CE02846FFF7F4FE09F0DF03472B804600F08481B9F1650F0D9900F28D81EA
:403E000001394A4604F150000D91FFF742FF0E9A82468318012A236100F37C812268D10700F178819DF8333013B12D2384F84330009733460FAA2146284600F09FF9013056
:403E400002D14FF0FF3096E123685A0501D4236965E0B9F1650F40F2D580D4E9120100220023FFF7D1FB78B30123654A31462846B8470130E5D00E9B0D9A9A420BDB236819
:403E8000D80708D423689B0740F111814FF0000804F1190906E10A9B099A31462846B8470130CED04FF0000804F11A090E9B013B9845E7DA01234A4631462846B84701306C
:403EC000BFD008F10108F1E70D9B002B29DC01234B4A31462846B8470130B2D00D9B23B90E9B13B92368D907CCD50A9B099A31462846B8470130A4D04FF0000904F11A0AFA
:403F00000D9B5B42994509DA0123524631462846B847013095D009F10109F1E70E9B4246A7E00E9AA36D9A42A8BF1A46002A914606DC4FF0000A29EAE97904F11A0B11E0AA
:403F40001346314642462846B8470130F1D178E701235A4631462846B84701303FF471AF0AF1010AA36DC9EB03029245F0DB08EB03090D9A0E9B9A420FDB2368DA070CD42C
:403F80000E9B0D9A9844C9EB08089B1A9845A8BF9846B8F1000F08DC0FE00A9B099A31462846B8470130EBD14BE743464A4631462846B84701303FF444AF4FF0000928EAB6
:403FC000E87804F11A0A09E00123524631462846B84701303FF435AF09F101090D9A0E9B9B1AC8EB03039945EEDB4BE7FFFFEF7FEE5D0000F25D0000F65D0000FA5D00002C
:40400000FE5D00000E9A012A01DCDB0738D50123424631462846B84701303FF412AF0A9B099A31462846B84701303FF40AAFD4E9120100220023FFF7E7FA20B14FF0000884
:4040400004F11A090EE00E9B08F10102013B19E001234A4631462846B84701303FF4F1AE08F101080E9B013B9845F1DB534604F1500231462846B84701307FF403AFE0E655
:404080004246012331462846B8470130EED1D8E601234A4631462846B84701303FF4D1AE08F10108E3680F9A9B1A9845F0DBE0680F9B9842B8BF18465DE062680EA8531C27
:4040C0000DF1340E4BF480637FF474AE062201E012B90122626075E6002106910DF133018DE80C00236005904246CDF81090CDF80CE0029153462846FFF76BFD80460D9B2E
:40410000D81C02DB626893421DDDA9F102095FFA89F970E60133236184E6B9F1660F14D10029636807DD216113B92268D2071DD501330B4419E013B92268D00701D50233EA
:4041400013E0012311E04FF067090D9B0E9A934205DB22682361D10708D5013305E0002BD4BFC3F102030123134423610D9B4FF0000AA36556E611B0BDE8F08F2DE9F047CA
:4041800091461F460A698B6806469342B8BF1346C9F8003091F843200C46DDF8208012B10133C9F800302368990642BFD9F800300233C9F80030256815F0060510D104F11B
:4041C000190A07E00123524639463046C04701301AD00135E368D9F800209B1A9D42F1DB94F843302268003318BF012392060FD5E118302081F843005A1C94F8451022441B
:40420000023382F8431003E04FF0FF30BDE8F08704F1430239463046C0470130F4D02268D9F80050E36802F00602042A08BF5D1B2269A3680CBF25EAE57500259342C4BF40
:404240009B1AED184FF000091A344D4509D00123224639463046C0470130D5D009F10109F3E70020BDE8F0872DE9F04317460A7E85B06E2A984606460C460C9B01F1430EAA
:4042800000F0AE8011D8632A22D009D8002A00F0BB80582A40F0CA8081F84520834955E0642A1ED0692A1CD0C0E0732A00F0B08009D86F2A2ED0702A40F0B8800A6842F0F1
:4042C00020020A603EE0752A24D0782A3AD0ADE01A6801F14205111D1960136884F84230A8E021681A6811F0800F02D0111D196008E011F0400F02F10401196002D0B2F9BB
:40430000003000E01368002B3CDA2D225B4284F8432037E021681A6811F0800F02D0111D196007E011F0400F02F10401196001D0138800E01368227E5C496F2A14BF0A226F
:4043400008221BE078225A4984F845202268186812F0800F00F104051D6003D1550601D5038800E00368D00744BF42F0200222601BB9226822F0200222601022002084F87B
:40438000430001E049490A226568002DA56008DB206820F0040020602BB9002D7DD175460CE0002B79D07546B3FBF2F002FB1033CB5C05F8013D03460028F5D1082A0BD171
:4043C0002368DA0708D5236962689A42DEBF302305F8013C05F1FF35C5EB0E0323612EE008681A6810F0800F496903D0101D1860136808E010F0400F02F104001860136854
:4044000001D0198000E0196000232361754616E01A68111D1960156800216268284600F0AFFE08B1401B6060636804E004F1420584F8422001232361002384F84330CDF8A9
:4044400000803B4603AA21463046FFF797FE013002D14FF0FF3026E023692A4639463046C0470130F5D023689B0710D5002504F1190907E001234A4639463046C0470130AA
:40448000E7D00135E368039A9B1A9D42F2DBE068039B9842B8BF184605E00B7804F1420584F842308AE705B0BDE8F083005E0000115E00000EB400B54FF402719CB0ADF876
:4044C00014106FF00041049107914FF6FF711DAB02900690084853F8042BADF81610006802A9019301F042FA029B00221A701CB05DF804EB03B070474881FF1F10F8012BDF
:4045000011F8013B012A28BF9A42F7D0D01A7047034613F8012B002AFBD1181A013870472DE9F74F03690C6980469C427FDC013C01F114074FEA840E00F1140606EB0E03EA
:4045400057F82450019356F824300135B3FBF5F507EB0E09C5B34FF0000A3846B446D34650F8043B9AB205FB02A21B0C4FEA124A05FB03A392B2C2EB0B0BBCF800204FEA2C
:40458000134A5A441FFA83FBDCF800308145CBEB134303EB224392B242EA03424FEA234B4CF8042BDCD256F80E306BB9019B043B9E421A4602D3C8F8104005E01268043B75
:4045C000002AF8D1013CF3E7404600F0F4FF00282BDB304601354FF0000E57F8042B036891B2C1EB0E0E120C99B27144C2EB134303EB214389B24FEA234EB94541EA034366
:4046000040F8043BE9D256F8242006EB840362B9043B9E421A4602D3C8F8104005E01268043B002AF8D1013CF3E7284600E0002003B0BDE8F08F00002DE9F04F456A95B089
:404640008246219CCDE9022345B9102000F090FDCAF82400456085600560C560DAF82430196859B15A68012393404A608B60504600F0C9FDDAF8243000221A60039BA04AA0
:40468000002BBDBF01232360039B0023BCBF23F000430393DDF80C80A8BF236028F000431B0D1B0593421DD142F20F73209A1360029B43B9934A944BC8F31300002814BFD2
:4046C0001846104600E09048229B002B00F04685C37813B100F1080300E0C31C229A136000F03CBDDDE902450022002320462946FEF78AFF074658B1209A01231360229BD0
:40470000002B00F01E8581481860013800F026BD12AB019313AB009322462B46504600F0C5FFC8F30A56049056B1C5F3130343F07F51204641F44011A6F2FF3611971DE0C4
:40474000139B129E1E4406F23243202B0ADD029A06F21240C3F1400322FA00F008FA03F3184304E0C3F12000029B03FA00F0FEF76DFC0123A1F1F871013E11930022644B2B
:40478000FEF726FB58A3D3E90023FEF7D5FC58A3D3E90023FEF71EFB044630460D46FEF765FC55A3D3E90023FEF7C6FC02460B4620462946FEF70EFB04460D4601F028FA48
:4047C00000228346002320462946FEF727FF58B15846FEF74BFC02460B4620462946FEF713FF08B90BF1FF3BBBF1160F0DD8DDE90223484901EBCB01D1E90001FEF72CFFA7
:4048000030B10BF1FF3B002300E00123109300E01090129B9E1B731E079343BFC3F10008002307934FF00008BBF1000F06DB079BCDF82CB05B440793002705E00023CBEBC7
:404840000808CBF100070B931E9B092B28D8052BC4BF043B1E931E9BC8BF0025A3F10203D8BF0125032B20D8DFE803F0060E0204012302E0012308E000230A931F9B002BCB
:404880001DDD9946059321E000230A931F9B0BEB030909F10103012B0593B8BF012315E0012500231E930A9501E001230A934FF0FF390022CDF8149012231F9206E04FF070
:4048C00001094B46CDF81490CDF87C90DAF8244000226260042101F114029A421CD86268490001326260F6E761436F63A787D23FB3C8608B288AC63FFB799F501344D33F49
:404900000000F07F225E00002B5E0000FF5D00000000F83F385E00006168504600F03EFCDAF8243020601B680693059B0E2B00F25B81002D00F05881DDE90234BBF1000F37
:40494000CDE90E3430DD9F4A0BF00F034FEA2B1502EBC303E80618CBCDE908340CD5DDE90E01994B05F00F05D3E90823FEF70EFD0324CDE9020100E00224934E6DB1E907EE
:4049800008D5DDE90801D6E90023FEF7D5FBCDE9080101346D100836F0E7DDE90823DDE90201FEF7F3FC20E0CBF1000505B3DDE90E01844B05F00F0203EBC203D3E90023CB
:4049C000FEF7BAFBCDE902017F4E2D110023022455B1EA0705D5D6E90023FEF7ADFB013401236D100836F3E71BB1CDE9020100E00224109BE3B1DDE902560022734B28468C
:404A00003146FEF70BFE98B1059B8BB1B9F1000F40F3E6800BF1FF330893314600226C4B2846FEF789FB0134CDE902014E4602E0059ECDF820B02046FEF718FBDDE9022395
:404A4000FEF77AFB634B0022FEF7C4F9A1F1507304460C931D46D6B9DDE9020100225E4BFEF7B6F922460C9BCDE90201FEF7F4FD002840F03F820C99224601F10043DDE913
:404A80000201FEF7CBFD002840F02B82A8E00A9A4C4B711E002A49D003EBC103D3E9002300204E49FEF772FC22462B46FEF790F9CDE90C01069CDDE9020101F0A9F805468F
:404AC000FEF7D4FA02460B46DDE90201FEF780F9DDE90C23303504F8015BCDE90201FEF79DFD002840F01D83DDE9022300203749FEF76EF9DDE90C23FEF790FD002840F07B
:404B0000D180069BE31AB3426ADADDE90C0100222F4BFEF711FB0022CDE90C01DDE902012B4BFEF709FBCDE90201C4E703EBC1012246D1E900012B46FEF7FEFA069BCDE9D4
:404B40000C011D469C19DDE9020101F061F80646FEF78CFA02460B46DDE90201FEF738F9303605F8016BAC42CDE902014FF0000222D11A4BDDE90C01FEF72CF902460B4619
:404B8000DDE90201FEF768FD002840F08B80DDE90C2300201149FEF71BF902460B46DDE90201FEF73BFDD8B114F8013C621E302B40F0B7821446F7E7054BFEF7BDFACDE968
:404BC0000201C0E7385E0000105F00000000F03F0000244000001C40000014400000E03FDDE90E34CDE90234139B002B7CDBBBF10E0F79DCAB4B03EBCB03D3E900671F9BD3
:404C0000002B14DA059B002B11DC40F06C810022A54B30463946FEF78FFADDE90223FEF711FD059D2E46002840F05F8165E1069CDDE9028932463B4640464946FEF7A6FBE8
:404C400000F0E6FF0546FEF711FA32463B46FEF773FA0B46024649464046FEF7B9F805F1300E069B04F801EBC3EB040E059B73452DD102460B46FEF7ADF880468946024682
:404C80000B4630463946FEF7C9FC78B942464B4630463946FEF7B8FC002800F04482EB0704D440E2DDF820B000E01C4614F8012C631E392A07D1069A9A42F6D10699302232
:404CC0000BF1010B0A701A7801321A702BE20022764BFEF731FA0022002380468946FEF793FC0028A6D01EE20A9A002A2BD01E9A012A0ADC119A12B103F2334302E0129BDD
:404D0000C3F136033D46444613E0059B5D1EAF42BFBF0B9BEA1B9B180B93059BB6BF2F467D1B0025002BA7BF4446059BC3EB08040023079A01211A4450469844079200F005
:404D400001FB064602E03D4644460A9E5CB1079B002B08DDA342A8BF2346079AC3EB0808E41AD31A0793002F1DDD0A9BABB18DB131462A46504600F07FFB049A014606467C
:404D8000504600F0E8FA04990890504600F03BFA089B04937A1B06D000E03A460499504600F06AFB04900121504600F0CBFA0B9B05465BB31A460146504600F05DFB1E9BD0
:404DC0000546012B18DC029B83B9039BC3F3130373B9039B23F000473F0D3F054FB1079B08F1010801330793012702E0002700E0029F0B9B73B100E000272B6905EB830352
:404E0000186900F052FAC0F1200004E01E9B012BD9DD0B9F0120079B184410F01F0008D0C0F12003042B02DDC0F11C0002E006D018461C30079B8044034404440793B8F15C
:404E4000000F05DD42460499504600F063FB0490079B002B05DD29461A46504600F05AFB0546109B23B32946049800F0A4FB00281EDA00230A220499504600F0DBF90A9BDA
:404E80000BF1FF3B0490002B00F05F81314600230A22504600F0CEF9B9F1000F06463FDC3BE000BF385E00000000144000002440059B002B2BDC1E9B022B28DDDDF814909C
:404EC000B9F1000F11D129464B460522504600F0B1F901460546049800F06DFB00280CDC03E0354600E000252E461F9B069C6FEA030B09E03546DDF820B0069B069A5C1CCE
:404F0000312313700BF1010B05960026F7E00A9BDDF8149023B9069CB2E01E9B022BCFDC002C05DD31462246504600F0F3FA06469FB17168504600F031F90446326906F1DA
:404F40000C01023292000C30FEF730FE01222146504600F0DFFA059000E00596029B069F03F00103079329460498FFF7D9FA3146044600F13008049800F01DFB059A0290A0
:404F80002946504600F033FBC36802463BB901460A90049800F00FFB0A9A034600E00123114650460A9300F02EF90A9B53B91E9A42B9079A32B9B8F1390F2AD0029B002BBB
:404FC0001CDC1DE0029A002A04DB1BD11E9ACAB9079ABAB9002B13DD01220499504600F099FA2946049000F0E6FA002803DC07D118F0010F04D0B8F1390F0AD004F1310851
:405000007C1C0CE0002B07F101040BDDB8F1390F03D139233B70013756E008F1010887F800806CE0069B2746E31A4B4504F8018C3BD000230A220499504600F0FBF8059B21
:4050400004909E424FF00A024FF000033146504604D100F0EFF80646059084E700F0EAF8002306460A220599504600F0E3F8059079E700230A220499504600F0DBF80490F0
:4050800029460498FFF74CFA069B00F1300804F8018BE31A4B45ECDB069B0596B9F1010FACBF4B4401331F46002601220499504600F030FA2946049000F07DFA002803DC73
:4050C00015D118F0010F12D03C4614F8013C621E392B09D1069B934204D10BF1010B3123069A02E01446F0E70133137007E03C4614F8013C621E302B01D11446F8E729462F
:40510000504600F080F8059B6BB12EB19E4203D03146504600F077F80599504600F073F801E0DDF820B00499504600F06CF80023209A23700BF101031360229B1BB11C6033
:4051400001E008480AE0069808E0B9F1000F3FF7E2AE1E9B022B7FF7DEAEB1E615B0BDE8F08F00BFFE5D0000004870474C81FF1F024B0146186800F041BB00BF4881FF1FFD
:4051800010B5C9B202449042034605D01C7801308C42F8D1184610BD002010BD70B5456A04460E463DB91020FFF7E2FF6062456085600560C560656AEB6843B1636ADB689A
:4051C00053F8260078B1026843F8262017E021220421204600F0B8FA636AE860DB68002BECD1002070BD012101FA06F56A1D9200204600F0A9FA0028F3D046608560002373
:405200000361C36070BD70B5446A06460D463CB91020FFF7ADFF7062446084600460C4603DB1736A6A68DB6853F82210296043F8225070BD2DE9F04106460C460D691F461F
:4052400001F1140E0023DEF80000013381B202FB0171000C0F0C02FB007089B201EB00419D424FEA10474EF8041BECDCD7B1A3689D4212DB616830460131FFF78FFF804699
:40528000226904F10C01023292000C30FEF78EFC21463046FFF7B7FF444604EB850301355F6125612046BDE8F081030C1B0413B90004102300E0002310F07F4F04BF000297
:4052C000083310F0704F04BF0001043310F0404F04BF80000233002803DB420003D5581C70471846704720207047036813F007020BD0D90722D49A074BBF5B089B0803601F
:4053000003604CBF01200220704799B209B91B0C102213F0FF0F04BF1B0A0832190704BF1B090432990704BF9B080232D90702D45B0805D00132036010467047002070478D
:405340002020704710B50C460121FFF727FF01224461026110BD2DE9F74F14460A69236988469A42BEBF0B46A0461C46D8F81070D4F81090D8F80830D8F8041007EB0906CB
:405380009E42C8BF0131FFF709FF00F114052B4605EB860C0022634502D243F8042BFAE704F1140208F1140102EB890301EB87070093009B0192934257D9B2F800B0BBF198
:4053C000000F23D08946AE464FF0000859F8044BBEF800A0A3B20BFB03A34FEA144ADEF8004043444FEA14480BFB0A84F24604EB13449BB243EA04434F454FEA14484AF8A3
:40540000043B01D9D646E1E7CEF80480019B0432B3F802A0BAF1000F21D02C4689462B684FF00008B9F800E0B4F802B09BB20AFB0EBEA346F04443EA08434BF8043B59F8CB
:40544000043BB4F804E01B0C0AFB03E34F4503EB18434FEA134801D95C46E3E763600435A7E75CF8043D13B9013E002EF9DC066103B0BDE8F08F00002DE9F843154612F07B
:40548000030206460F4607D0214C013A002354F82220FFF7CFFE0746AD1036D0746A3CB91020FFF765FE7062446084600460C460D6F82480D8F808404CB940F2712130463C
:4054C000FFF740FF04460023C8F8080003604FF00008EB070AD5394622463046FFF73BFF814639463046FFF78EFE4F466D100CD0206808B10446ECE7224621463046FFF775
:405500002AFF2060C0F80080F4E73846BDE8F883005F00002DE9F0470C460746914626694FEA621A56444968A368751CAB4202DA01315B00FAE73846FFF730FE0023804602
:405540001A4600F11401534503DA41F823200133F9E72AEAEA73206901EB830319F01F0904F1140101EB800E14D0C9F1200C002208689A4600FA09F0024343F8042B51F878
:40558000042B8E4522FA0CF2F2D8CAF8042042B1B51C06E0043B51F8042B8E4543F8042FF9D8013D3846C8F810502146FFF72BFE4046BDE8F08703690A6910B59B1A11D16D
:4055C00092001430143183180A4453F8044D52F8041D8C4202D007D3012010BD9842F4D3002010BD184610BD4FF0FF3010BD2DE9F8430C460746114620461546FFF7DBFF6C
:40560000061E08D131463846FFF7C8FD012303614661BDE8F883BCBF23462C4638466168BABF1D4601260026FFF7B8FD2B69C660266905F1140904F1140101EB860709EB2A
:40564000830800F114054FF0000C51F8042B59F8044B93B29C44A3B2240CC3EB0C03C4EB124202EB23429BB24FEA224CC84543EA02428E4645F8042BE7D8BE450ED25EF8CC
:40568000041B8AB26244131403EB114392B242EA03424FEA234C45F8042BEEE755F8043D0BB9013EFAE70661BDE8F8832DE9F3411C4601219046089E099DFFF76FFDC4F3E0
:4056C0001302C4F30A5407460CB142F480120192B8F1000F19D002A840F8088DFFF705FE009B48B1019AC0F1200102FA01F10B43C2407B61019200E07B61019B002B14BF06
:4057000002210121BB61396107E001A8FFF7EDFD019B01217B613961203034B1A4F2334404443460C0F1350009E0A0F2324007EB810330601869FFF7B8FDC0EB4110286023
:40574000384602B0BDE8F08138B502FB01F4214600F054F8054618B122460021FEF731FA284638BD38B50546002944D051F8043C0C1F002BB8BFE41800F017FA1E4A136896
:40578000114613B96360146030E0A3420DD92268A018834201BF18685B681218226063600C6023E0A24203D813465A68002AF9D118681918A1420BD121680144581882428C
:4057C000196013D110685268014419605A600DE002D90C232B6009E021686018824201BF106852680918216062605C602846BDE8384000F0DBB938BDE802002070B5CD1C44
:4058000025F0030508350C2D38BF0C25002D064601DBA94202D90C23336046E000F0C5F9234B1C681A462146A1B10B685B1B0ED40B2B03D90B60CC18CD501EE08C420BBF12
:4058400063684B681360636018BF0C4615E00C464968E9E7174C23681BB9304600F07AF920602946304600F075F9431C18D0C41C24F00304A0420DD12560304600F096F9A9
:4058800004F10B00231D20F00700C31A0ED05A42E25070BD211A304600F05CF90130EBD10C233360304600F081F9002070BD00BFE8020020E40200202DE9F0478E6882462F
:4058C0009E420C46914698463ED88A8912F4906F3AD02568096902236F1A656905EB450595FBF3F57B1C43449D4238BF1D4653050FD52946FFF782FF064698B13A46216944
:40590000FEF754F9A38923F4906343F08003A38113E02A4600F04BF9064670B921695046FFF720FF0C23CAF80030A3894FF0FF3043F04003A381BDE8F08726613E442660D4
:4059400046466561ED1BA560464528BF464649463246206800F00EF9A36800209B1BA36023681E442660BDE8F08700002DE9F04F9DB003938B8980461C060D4616460DD50C
:405980000B695BB94021FFF739FF2860286118B90C23C8F80030CDE040236B610023099320238DF82930DFF89CB130238DF82A3037463C4614F8013B1BB9B7EB060910D011
:4059C00003E0252BF9D02746F3E74B46324629464046FFF771FF013000F0A780099B4B4409933B78002B00F0A08000234FF0FF3204930793059206938DF853301A9301262B
:405A0000052221784E48FFF7BBFB671C049B38B14B4A3C46801A06FA00F018430490EFE7D90644BF20228DF853201A0744BF2B228DF8532022782A2A03D0079A00210A20C1
:405A40000BE0039A111D12680391002A10DA524243F00200079204900BE027463B780134303B092B03D800FB02320121F5E701B107923B782E2B1ED17B782A2B0AD1039B6A
:405A800002371A1D1B680392002BB8BF4FF0FF33059310E0002319460593781C0A2407463A780130303A092A03D804FB01210123F5E703B10591032239782248FFF760FB43
:405AC00040B14023CBEB000003FA00F0049B013718430490397806221B487E1C8DF82810FFF74EFB88B1194B33B9039B073323F007030833039314E003AB00932A46144BC4
:405B000004A94046FEF7F6F807E003AB00932A460F4B04A94046FEF7A7FBB0F1FF3F824603D0099B5344099342E7AB895B0601D4099801E04FF0FF301DB0BDE8F08F00BF0F
:405B4000385F00003E5F0000425F0000F53C0000B958000038B5064C0023054608462360FCF7B4F8431C02D1236803B12B6038BD18030020884210B501EB020301D8421E0C
:405B80000BE09842FBD28118D21AD34204D013F8014D01F8014DF8E710BD994204D011F8014B02F8014FF8E710BD70477047F8B5074615460E4621B91146BDE8F840FFF784
:405BC0001DBE1AB9FFF7CEFD2846F8BD00F015F885420ED929463846FFF710FE044650B131462A46FDF7E2FF31463846FFF7BAFD01E03046F8BD2046F8BD51F8040C002826
:405C0000BEBF091851F8043CC0180438704700004FEA410212F5001215D211D56FF47873B3EB625212D94FEAC12343F0004343EA505311F0004F23FA02F018BF40427047B3
:405C40004FF00000704750EA013005D111F0004008BF6FF0004070474FF00000704700BF00000000000000004E6F2053756E6C696768740053756E6C69676874204F4B00A7
:405C80004F5425332E306600495425322E3066002B505245534F4E3B000000002B505245534F46463B00000025732B4F54454D503A25332E30663B2B494E54454D503A2585
:405CC000322E30663B0000000D0A00004C4F4E004C4F464600000000574F50454E00000057434C4F53450000464F4E00464F464600000000484F4E00484F464600000000EA
:405D0000454534343530204652454552544F530043616E277420637265617465204D7367427566005155455545204552524F52004C4344205461736B0000000043616E6EA8
:405D40006F7420637265617465205461736B210053686F772052656164696E6773000000554152542053796E430000004164756A757374696E6720477265656E686F757323
:405D80006500000049444C45000000003D510040285B00403D510040285B00403D510040285B004040402020101000000051004010004051004030000000014000100014C6
:405DC0000140800400190140000300400140000A004C0140000200500140200080180140FC030048800000006C6F67004300494E4600696E66004E414E006E616E0030002D
:405E000030313233343536373839414243444546003031323334353637383961626364656600496E66696E697479004E614E00504F534958002E0000000000000000F03F27
:405E4000000000000000244000000000000059400000000000408F40000000000088C34000000000006AF8400000000080842E4100000000D01263410000000084D79741BD
:405E80000000000065CDCD41000000205FA00242000000E876483742000000A2941A6D42000040E59C30A2420000901EC4BCD64200003426F56B0C430080E03779C34143A6
:405EC00000A0D8855734764300C84E676DC1AB43003D9160E458E143408CB5781DAF154450EFE2D6E41A4B4492D54D06CFF08044F64AE1C7022DB544B49DD9794378EA44BF
:405F000005000000190000007D000000000000000080E03779C34143176E05B5B5B89346F5F93FE9034F384D321D30F94877825A3CBF737FDD4F1575232D302B2000686CA8
:405F40004C0065666745464700000000F8B500BFF8BC08BC9E4670474D000000491D0000F8B500BFF8BC08BC9E46704729000000805F0000C880FF1FC000000098810000D9
:405F800000000000AAAAAAAA2003002000007C92F82401004B000000C0687804FF0100000000000000000000000000000000000000000000000000000000000000000000DC
:405FC000EC5D000000000000000000000000000000000000000000000000000000000000000000000000000000000000000000000000000000000000000000000000000058
:40600000E880FF1F355E00003D5F00003D5F00003D5F00003D5F00003D5F00003D5F00003D5F00003D5F00003D5F0000FFFFFFFFFFFFFFFFFFFFFFFFFFFF000000000000D9
:406040000000000000000000000000000000000000000000000000000000000000000000000000000000000000000000000000000000000000000000000000000000000020
:4060800000000000000000000000000000000000000000000000000000000000000000000000000000000000000000000000000000000000000000000000000000000000E0
:4060C00000000000000000000000000000000000000000000000000000000000000000000000000000000000000000000000000000000000000000000000000000000000A0
:40610000000000000000000000000000000000000000000000000000000000000000000000000000000000000000000000000000000000000000000000000000000000005F
:020000040003F7
:0200000480007A
:4000000002520040026400400265004001070140650801403E090140021501401B180140461901404E1A0140471B0140054001400341014003420140054301400248014003
:4000400007490140054C01400B4D0140085001400151014009206180880D890F89728A38E2010010012002400303040C0511067107060809090C0AD00B130E0318101AAC81
:400080001B0C1E20230824DC25112622270E2814333034E0350F361F39083A203B204002460449FF4A074BFF4C404D204EF04F05500852805405580459045A045B045C115B
:4000C0005D015F01604061A86240632084E088408A208C208EC090809220930194139604980A9A149C139E0CA215A403A614A8E0AE08B0E0B301B40FB610BA20BE40C02188
:40010000C106C50CC6BEC80DC9FFCAFFCBFFCEF0CF44D00CD401D604D804D904DA04DB04DC11DD11DF01E6C0EA40EB02002001040302042405400640080109100B220E04EB
:400140000F0210B01110120115201708188019801A041B221C041D401F1022042420251027182F90300137103D203E053F024205472048204B204C804F0251105280564091
:400180005780581059865E485F016202774082028C108E01C0F7C2CFC46FCAC0CC21CEE0D02CD204D6DFD801E602EE080301050309022503330339083F044010410449FF9D
:4001C0004AFF4BFF4DA04F04501859045A045F01604062C06440654066C068C06AC06CC06EC000200102022003020480060108010A2910A8120119911A211B4A2008220953
:400200002302272029912F1031603220330838283A023D203E043F024180458046404B815110524053405A0269146B0170BC720287028D129080920C9320951496409701DC
:4002400099409B409C019D049F20A110A280A301A410A604B102B280B721C00FC20FC40FCA4DCC0ECEE7D098D208D601E402014203110507060209070A010D600F08110404
:400280001202152117121B601E04200823602404276029602A012D60300131603208330334023504360437183E153F404042410642034401460E470C481449FF4AFF4BFF66
:4002C0004C624DA04EF04F41500C54185604580459045A045B045C105D115F016640670269106A306B106D106E106F129404980C9E02A202AE01B004B208B402B601BE10D2
:40030000D608D804DB04DD90DF0100080208030809800B800C100D900E101018128016401740180419841B011D801E5820212128220129102A082B42310832103301388094
:4003400039143B01400141204208430A4910500853405A025C80600463426401670187408C808D80908091349220964099109A409B419C019D04A004A288A342A410A5A0E3
:40038000A604C006C2E9C49ECA0FCC07CE0FD00FD204D611D81DEE083220330836803704CCF09F04A6A0A7089F04A6A0A70883049F04A6A0A708E280A6A0A708862087089B
:4003C000A620A708AE80E640EE101F8061018740C601D802122073408D018E2093409D01AF80C408DC01E208E402000302140C031003110112141C031D0100FFFF100000D5
:400400000018B30001080000F3000C00420000004C3CA302000040044F01900008260018040000000C3E0000033800060F207C1C00028C010020AA0000000041100500000B
:4004400000D012000EFFFFFF00AF0F04180000000000021304040404111000014000C0004040C000C000C000C000C0000000000000000000000000000000000080004080EE
:4004800080008000000000000010100000000000007B7B0020000000007F7F000000000000000000000070003E001801000000000000000000000000000000000000000041
:4004C00000000000000000000000000000000000000000000000000000000000000000000000000000000000000000000000000000000000000000000000000000000000FC
:4005000000000000000000000000000000000000000000000000000000000000000000000000000000000000000000000000000000000000000000000000000000000000BB
:40054000000000000000000000000000000000000000000000000000000000000000000000000000000000000000000000000000000000000000000000000000000000007B
:40058000000000000000000000000000000000000000000000000000000000000000000000000000000000000000000000000000000000000000000000000000000000003B
:0200000490006A
:0400000000004005B7
:0200000490105A
:04000000BC90ACAF55
:0200000490303A
:02000000B27DCF
:0200000490402A
:4000000000000000000000000000000000000000000000000000000000000000000000000000000000000000000000000000000000000000000000000000000000000000C0
:400040000000000000000000000000000000000000000000000000000000000000000000000000000000000000000000000000000000000000000000000000000000000080
:400080000000000000000000000000000000000000000000000000000000000000000000000000000000000000000000000000000000000000000000000000000000000040
:4000C0000000000000000000000000000000000000000000000000000000000000000000000000000000000000000000000000000000000000000000000000000000000000
:0200000490501A
:0C00000000012E16106900012E3DC2E622
:00000001FF